:020000040800F2
:1000000000000320C90400081905000819050008AC
:10001000190500081905000819050008000000006E
:1000200000000000000000000000000019050008AA
:10003000190500080000000019050008190500084E
:100040001905000819050008190500081905000818
:100050001905000819050008190500081905000808
:1000600019050008190500081905000819050008F8
:1000700019050008190500081905000819050008E8
:1000800019050008190500081905000819050008D8
:1000900019050008190500081905000819050008C8
:1000A00019050008190500081905000819050008B8
:1000B00019050008190500081905000819050008A8
:1000C0001905000819050008190500081905000898
:1000D0001905000819050008190500081905000888
:1000E0001905000819050008190500081905000878
:1000F0001905000819050008190500081905000868
:100100001905000819050008190500081905000857
:100110001905000819050008190500081905000847
:100120001905000819050008190500081905000837
:100130001905000819050008190500081905000827
:100140001905000819050008190500081905000817
:100150001905000819050008190500081905000807
:1001600019050008190500081905000819050008F7
:10017000190500081905000819050008000000000D
:1001800019050008190500081905000819050008D7
:1001900019050008190500081905000819050008C7
:0C01A000190500081905000819050008E1
:1001AC0010B5054C237833B9044B13B10448AFF3A5
:1001BC0000800123237010BD00000020000000000F
:1001CC006405000808B5034B1BB103490348AFF3A2
:1001DC00008008BD00000000040000206405000839
:1001EC00034AD2F8883043F47003C2F88830704761
:1001FC0000ED00E02DE9F84300F0EEF800F006F910
:10020C0000F024F900263746B046B1462EE04FF4F4
:10021C00FA7000F047F908F101085FFA88F8B8F1B4
:10022C00030F01D801262BE0B046012628E0B9F1D6
:10023C00000F4DD1664A936943F00803936102F5B0
:10024C000062936943F480339361A2F580629369F1
:10025C0043F40013936109F101095FFA89F9B9F1CB
:10026C00020F00F2B180012704B90027594B1C6919
:10027C0004F040041D6915F0040501D0002EC6D011
:10028C0005B90026002CEFD0002FEDD14FF4FA70F9
:10029C0000F008F9B8F1010FC9D9B8F1020F41D03B
:1002AC00B8F1030FD7D1B9F1010F7BD0484A93694C
:1002BC0043F40023936102F50062936943F48033A5
:1002CC009361A2F58062936943F400139361C2E7D2
:1002DC00B9F1010F14D0B9F1020FBCD13C4A9369AA
:1002EC0043F40023936102F50062936943F4803375
:1002FC009361A2F58062936943F020039361AAE7AE
:10030C00334A936943F40023936102F500629369C5
:10031C0043F001039361A2F58062936943F40013E7
:10032C00936198E7B9F1000F11D1294A936943F011
:10033C000803936102F50062936943F00103936132
:10034C00A2F58062936943F40013936183E7B9F1DA
:10035C00010F15D0B9F1020F7FF47DAF1C4A9369E0
:10036C0043F00803936102F50062936943F4803310
:10037C009361A2F58062936943F0200393616AE76D
:10038C00134A936943F40023936102F50062936965
:10039C0043F001039361A2F58062936943F020035B
:1003AC00936158E70A4A936943F00803936102F595
:1003BC000062936943F001039361A2F58062936933
:1003CC0043F02003936146E7B94601274CE700BF91
:1003DC0000000240000802400A4AD2F8303843F0CC
:1003EC000103C2F83038084B1A6842F040021A6018
:1003FC009A6842F040029A609A6942F400229A612B
:10040C00704700BF00300240000002400D4AD2F895
:10041C00303843F00203C2F830380B4BD3F80024C9
:10042C0042F48062C3F80024D3F8082442F48062BA
:10043C00C3F80824D3F8182442F40012C3F8182483
:10044C00704700BF0030024000000240134A136B9B
:10045C0043F004031363124B1A6842F001021A6052
:10046C005A6822F001025A609A6842F001029A60BE
:10047C00DA6822F00102DA601A6822F440521A603B
:10048C001A6822F030021A60DA6822F44052DA60FC
:10049C00DA6822F03002DA60704700BF00380240A0
:1004AC0000080240002201E000BF01324FF47A73D1
:1004BC0000FB03F39342F7D870470000DFF834D009
:1004CC000D480E490E4A002302E0D458C4500433A0
:1004DC00C4188C42F9D30B4A0B4C002301E0136077
:1004EC000432A242FBD3FFF77BFE00F011F8FFF7BA
:1004FC0081FE704700000320000000200000002057
:10050C0084050008000000201C000020FEE700000D
:10051C0070B50D4D0D4C641BA4100026A64209D1DC
:10052C000B4D0C4C00F018F8641BA4100026A642CE
:10053C0005D170BD55F8043B98470136EEE755F8E8
:10054C00043B98470136F2E77C0500087C0500085F
:10055C007C05000880050008F8B500BFF8BC08BC95
:10056C009E467047F8B500BFF8BC08BC9E46704765
:04057C00D1010008A1
:04058000AD010008C1
:04000005080004C922
:00000001FF
